{
  "_format": "hh-sol-artifact-1",
  "contractName": "DeScam",
  "sourceName": "contracts/DeScam.sol",
  "abi": [
    {
      "inputs": [],
      "stateMutability": "nonpayable",
      "type": "constructor"
    },
    {
      "inputs": [
        {
          "internalType": "address",
          "name": "owner",
          "type": "address"
        }
      ],
      "name": "OwnableInvalidOwner",
      "type": "error"
    },
    {
      "inputs": [
        {
          "internalType": "address",
          "name": "account",
          "type": "address"
        }
      ],
      "name": "OwnableUnauthorizedAccount",
      "type": "error"
    },
    {
      "inputs": [],
      "name": "ReentrancyGuardReentrantCall",
      "type": "error"
    },
    {
      "anonymous": false,
      "inputs": [
        {
          "indexed": false,
          "internalType": "string",
          "name": "parameterName",
          "type": "string"
        },
        {
          "indexed": false,
          "internalType": "uint256",
          "name": "oldValue",
          "type": "uint256"
        },
        {
          "indexed": false,
          "internalType": "uint256",
          "name": "newValue",
          "type": "uint256"
        }
      ],
      "name": "GovernanceParameterChanged",
      "type": "event"
    },
    {
      "anonymous": false,
      "inputs": [
        {
          "indexed": true,
          "internalType": "address",
          "name": "previousOwner",
          "type": "address"
        },
        {
          "indexed": true,
          "internalType": "address",
          "name": "newOwner",
          "type": "address"
        }
      ],
      "name": "OwnershipTransferred",
      "type": "event"
    },
    {
      "anonymous": false,
      "inputs": [
        {
          "indexed": true,
          "internalType": "uint256",
          "name": "id",
          "type": "uint256"
        },
        {
          "indexed": true,
          "internalType": "address",
          "name": "disputer",
          "type": "address"
        },
        {
          "indexed": false,
          "internalType": "uint256",
          "name": "stake",
          "type": "uint256"
        }
      ],
      "name": "ReportDisputed",
      "type": "event"
    },
    {
      "anonymous": false,
      "inputs": [
        {
          "indexed": true,
          "internalType": "uint256",
          "name": "id",
          "type": "uint256"
        },
        {
          "indexed": false,
          "internalType": "bool",
          "name": "verified",
          "type": "bool"
        },
        {
          "indexed": false,
          "internalType": "uint256",
          "name": "totalStake",
          "type": "uint256"
        }
      ],
      "name": "ReportResolved",
      "type": "event"
    },
    {
      "anonymous": false,
      "inputs": [
        {
          "indexed": true,
          "internalType": "uint256",
          "name": "id",
          "type": "uint256"
        },
        {
          "indexed": true,
          "internalType": "address",
          "name": "reporter",
          "type": "address"
        },
        {
          "indexed": false,
          "internalType": "string",
          "name": "ipfsHash",
          "type": "string"
        },
        {
          "indexed": false,
          "internalType": "enum DeScam.ScamType",
          "name": "scamType",
          "type": "uint8"
        }
      ],
      "name": "ReportSubmitted",
      "type": "event"
    },
    {
      "anonymous": false,
      "inputs": [
        {
          "indexed": true,
          "internalType": "uint256",
          "name": "id",
          "type": "uint256"
        },
        {
          "indexed": true,
          "internalType": "address",
          "name": "verifier",
          "type": "address"
        },
        {
          "indexed": false,
          "internalType": "uint256",
          "name": "stake",
          "type": "uint256"
        }
      ],
      "name": "ReportVerified",
      "type": "event"
    },
    {
      "anonymous": false,
      "inputs": [
        {
          "indexed": true,
          "internalType": "uint256",
          "name": "reportId",
          "type": "uint256"
        },
        {
          "indexed": true,
          "internalType": "address",
          "name": "staker",
          "type": "address"
        },
        {
          "indexed": false,
          "internalType": "uint256",
          "name": "amount",
          "type": "uint256"
        },
        {
          "indexed": false,
          "internalType": "bool",
          "name": "wasVerifier",
          "type": "bool"
        }
      ],
      "name": "StakeReleased",
      "type": "event"
    },
    {
      "inputs": [
        {
          "internalType": "uint256",
          "name": "_reportId",
          "type": "uint256"
        },
        {
          "internalType": "address",
          "name": "_address",
          "type": "address"
        }
      ],
      "name": "checkStake",
      "outputs": [
        {
          "internalType": "bool",
          "name": "",
          "type": "bool"
        },
        {
          "internalType": "bool",
          "name": "",
          "type": "bool"
        },
        {
          "internalType": "uint256",
          "name": "",
          "type": "uint256"
        }
      ],
      "stateMutability": "view",
      "type": "function"
    },
    {
      "inputs": [],
      "name": "disputePeriod",
      "outputs": [
        {
          "internalType": "uint256",
          "name": "",
          "type": "uint256"
        }
      ],
      "stateMutability": "view",
      "type": "function"
    },
    {
      "inputs": [
        {
          "internalType": "uint256",
          "name": "_reportId",
          "type": "uint256"
        }
      ],
      "name": "disputeReport",
      "outputs": [],
      "stateMutability": "payable",
      "type": "function"
    },
    {
      "inputs": [
        {
          "internalType": "address",
          "name": "_address",
          "type": "address"
        }
      ],
      "name": "getNetReputation",
      "outputs": [
        {
          "internalType": "int256",
          "name": "",
          "type": "int256"
        }
      ],
      "stateMutability": "view",
      "type": "function"
    },
    {
      "inputs": [
        {
          "internalType": "uint256",
          "name": "_reportId",
          "type": "uint256"
        }
      ],
      "name": "getReport",
      "outputs": [
        {
          "components": [
            {
              "internalType": "uint256",
              "name": "id",
              "type": "uint256"
            },
            {
              "internalType": "address",
              "name": "reporter",
              "type": "address"
            },
            {
              "internalType": "string",
              "name": "ipfsHash",
              "type": "string"
            },
            {
              "internalType": "uint256",
              "name": "timestamp",
              "type": "uint256"
            },
            {
              "internalType": "bool",
              "name": "verified",
              "type": "bool"
            },
            {
              "internalType": "enum DeScam.ScamType",
              "name": "scamType",
              "type": "uint8"
            },
            {
              "internalType": "uint256",
              "name": "verificationCount",
              "type": "uint256"
            },
            {
              "internalType": "uint256",
              "name": "disputeCount",
              "type": "uint256"
            },
            {
              "internalType": "bool",
              "name": "disputed",
              "type": "bool"
            },
            {
              "internalType": "uint256",
              "name": "totalStake",
              "type": "uint256"
            }
          ],
          "internalType": "struct DeScam.Report",
          "name": "",
          "type": "tuple"
        }
      ],
      "stateMutability": "view",
      "type": "function"
    },
    {
      "inputs": [
        {
          "internalType": "address",
          "name": "",
          "type": "address"
        }
      ],
      "name": "lastActionTime",
      "outputs": [
        {
          "internalType": "uint256",
          "name": "",
          "type": "uint256"
        }
      ],
      "stateMutability": "view",
      "type": "function"
    },
    {
      "inputs": [],
      "name": "minReputationToPropose",
      "outputs": [
        {
          "internalType": "uint256",
          "name": "",
          "type": "uint256"
        }
      ],
      "stateMutability": "view",
      "type": "function"
    },
    {
      "inputs": [
        {
          "internalType": "address",
          "name": "",
          "type": "address"
        }
      ],
      "name": "negativeReputation",
      "outputs": [
        {
          "internalType": "uint256",
          "name": "",
          "type": "uint256"
        }
      ],
      "stateMutability": "view",
      "type": "function"
    },
    {
      "inputs": [],
      "name": "owner",
      "outputs": [
        {
          "internalType": "address",
          "name": "",
          "type": "address"
        }
      ],
      "stateMutability": "view",
      "type": "function"
    },
    {
      "inputs": [],
      "name": "paused",
      "outputs": [
        {
          "internalType": "bool",
          "name": "",
          "type": "bool"
        }
      ],
      "stateMutability": "view",
      "type": "function"
    },
    {
      "inputs": [
        {
          "internalType": "address",
          "name": "",
          "type": "address"
        }
      ],
      "name": "positiveReputation",
      "outputs": [
        {
          "internalType": "uint256",
          "name": "",
          "type": "uint256"
        }
      ],
      "stateMutability": "view",
      "type": "function"
    },
    {
      "inputs": [
        {
          "internalType": "uint256",
          "name": "_amount",
          "type": "uint256"
        }
      ],
      "name": "recoverEth",
      "outputs": [],
      "stateMutability": "nonpayable",
      "type": "function"
    },
    {
      "inputs": [
        {
          "internalType": "uint256",
          "name": "_reportId",
          "type": "uint256"
        },
        {
          "internalType": "address",
          "name": "_staker",
          "type": "address"
        }
      ],
      "name": "releaseStake",
      "outputs": [],
      "stateMutability": "nonpayable",
      "type": "function"
    },
    {
      "inputs": [],
      "name": "renounceOwnership",
      "outputs": [],
      "stateMutability": "nonpayable",
      "type": "function"
    },
    {
      "inputs": [],
      "name": "reportCount",
      "outputs": [
        {
          "internalType": "uint256",
          "name": "",
          "type": "uint256"
        }
      ],
      "stateMutability": "view",
      "type": "function"
    },
    {
      "inputs": [
        {
          "internalType": "uint256",
          "name": "",
          "type": "uint256"
        },
        {
          "internalType": "address",
          "name": "",
          "type": "address"
        }
      ],
      "name": "reportDisputeStakes",
      "outputs": [
        {
          "internalType": "uint256",
          "name": "",
          "type": "uint256"
        }
      ],
      "stateMutability": "view",
      "type": "function"
    },
    {
      "inputs": [
        {
          "internalType": "uint256",
          "name": "",
          "type": "uint256"
        },
        {
          "internalType": "address",
          "name": "",
          "type": "address"
        }
      ],
      "name": "reportVerificationStakes",
      "outputs": [
        {
          "internalType": "uint256",
          "name": "",
          "type": "uint256"
        }
      ],
      "stateMutability": "view",
      "type": "function"
    },
    {
      "inputs": [
        {
          "internalType": "uint256",
          "name": "",
          "type": "uint256"
        }
      ],
      "name": "reports",
      "outputs": [
        {
          "internalType": "uint256",
          "name": "id",
          "type": "uint256"
        },
        {
          "internalType": "address",
          "name": "reporter",
          "type": "address"
        },
        {
          "internalType": "string",
          "name": "ipfsHash",
          "type": "string"
        },
        {
          "internalType": "uint256",
          "name": "timestamp",
          "type": "uint256"
        },
        {
          "internalType": "bool",
          "name": "verified",
          "type": "bool"
        },
        {
          "internalType": "enum DeScam.ScamType",
          "name": "scamType",
          "type": "uint8"
        },
        {
          "internalType": "uint256",
          "name": "verificationCount",
          "type": "uint256"
        },
        {
          "internalType": "uint256",
          "name": "disputeCount",
          "type": "uint256"
        },
        {
          "internalType": "bool",
          "name": "disputed",
          "type": "bool"
        },
        {
          "internalType": "uint256",
          "name": "totalStake",
          "type": "uint256"
        }
      ],
      "stateMutability": "view",
      "type": "function"
    },
    {
      "inputs": [],
      "name": "reputationCooldown",
      "outputs": [
        {
          "internalType": "uint256",
          "name": "",
          "type": "uint256"
        }
      ],
      "stateMutability": "view",
      "type": "function"
    },
    {
      "inputs": [],
      "name": "resolutionThreshold",
      "outputs": [
        {
          "internalType": "uint256",
          "name": "",
          "type": "uint256"
        }
      ],
      "stateMutability": "view",
      "type": "function"
    },
    {
      "inputs": [
        {
          "internalType": "uint256",
          "name": "_reportId",
          "type": "uint256"
        }
      ],
      "name": "resolveReport",
      "outputs": [],
      "stateMutability": "nonpayable",
      "type": "function"
    },
    {
      "inputs": [
        {
          "internalType": "uint256",
          "name": "_newPeriod",
          "type": "uint256"
        }
      ],
      "name": "setDisputePeriod",
      "outputs": [],
      "stateMutability": "nonpayable",
      "type": "function"
    },
    {
      "inputs": [
        {
          "internalType": "bool",
          "name": "_paused",
          "type": "bool"
        }
      ],
      "name": "setPaused",
      "outputs": [],
      "stateMutability": "nonpayable",
      "type": "function"
    },
    {
      "inputs": [
        {
          "internalType": "uint256",
          "name": "_newCooldown",
          "type": "uint256"
        }
      ],
      "name": "setReputationCooldown",
      "outputs": [],
      "stateMutability": "nonpayable",
      "type": "function"
    },
    {
      "inputs": [
        {
          "internalType": "uint256",
          "name": "_newThreshold",
          "type": "uint256"
        }
      ],
      "name": "setResolutionThreshold",
      "outputs": [],
      "stateMutability": "nonpayable",
      "type": "function"
    },
    {
      "inputs": [
        {
          "internalType": "uint256",
          "name": "_newStake",
          "type": "uint256"
        }
      ],
      "name": "setVerificationStake",
      "outputs": [],
      "stateMutability": "nonpayable",
      "type": "function"
    },
    {
      "inputs": [
        {
          "internalType": "string",
          "name": "_ipfsHash",
          "type": "string"
        },
        {
          "internalType": "enum DeScam.ScamType",
          "name": "_scamType",
          "type": "uint8"
        }
      ],
      "name": "submitReport",
      "outputs": [],
      "stateMutability": "nonpayable",
      "type": "function"
    },
    {
      "inputs": [
        {
          "internalType": "address",
          "name": "newOwner",
          "type": "address"
        }
      ],
      "name": "transferOwnership",
      "outputs": [],
      "stateMutability": "nonpayable",
      "type": "function"
    },
    {
      "inputs": [],
      "name": "verificationStake",
      "outputs": [
        {
          "internalType": "uint256",
          "name": "",
          "type": "uint256"
        }
      ],
      "stateMutability": "view",
      "type": "function"
    },
    {
      "inputs": [
        {
          "internalType": "uint256",
          "name": "_reportId",
          "type": "uint256"
        }
      ],
      "name": "verifyReport",
      "outputs": [],
      "stateMutability": "payable",
      "type": "function"
    }
  ],
  "bytecode": "0x6080604052662386f26fc1000060095562015180600a5562093a80600b556005600c556005600d556000600e60006101000a81548160ff02191690831515021790555034801561004e57600080fd5b5033600073ffffffffffffffffffffffffffffffffffffffff168173ffffffffffffffffffffffffffffffffffffffff16036100c25760006040517f1e4fbdf70000000000000000000000000000000000000000000000000000000081526004016100b991906101eb565b60405180910390fd5b6100d1816100e660201b60201c565b50600180819055506000600381905550610206565b60008060009054906101000a900473ffffffffffffffffffffffffffffffffffffffff169050816000806101000a81548173ffffffffffffffffffffffffffffffffffffffff021916908373ffffffffffffffffffffffffffffffffffffffff1602179055508173ffffffffffffffffffffffffffffffffffffffff168173ffffffffffffffffffffffffffffffffffffffff167f8be0079c531659141344cd1fd0a4f28419497f9722a3daafe3b4186f6b6457e060405160405180910390a35050565b600073ffffffffffffffffffffffffffffffffffffffff82169050919050565b60006101d5826101aa565b9050919050565b6101e5816101ca565b82525050565b600060208201905061020060008301846101dc565b92915050565b613e71806102156000396000f3fe6080604052600436106101cd5760003560e01c8063715018a6116100f7578063a83ba53e11610095578063cacbf96111610064578063cacbf961146106aa578063d0e902d1146106c6578063f2fde38b146106f1578063fb2c958c1461071a576101cd565b8063a83ba53e146105d5578063c5adb7e7146105fe578063c603ed7214610627578063c942adf714610664576101cd565b806391f29471116100d157806391f2947114610507578063989a64ce14610544578063a00d6f031461056d578063a60da929146105aa576101cd565b8063715018a61461049c57806384c861b5146104b35780638da5cb5b146104dc576101cd565b80633b2490391161016f5780635ab58b151161013e5780635ab58b15146103de5780635bf31d4d1461041d5780635c975abb146104485780636dfa5e6114610473576101cd565b80633b249039146103125780633d72ed171461033b5780634e25b08b146103785780634e7f9b19146103a1576101cd565b8063185c6f84116101ab578063185c6f8414610242578063277b4d8a1461026d57806327f0bfd6146102aa5780632f44ee7c146102e7576101cd565b806304ef55bd146101d257806309208a75146101fd57806316c38b3c14610219575b600080fd5b3480156101de57600080fd5b506101e7610743565b6040516101f491906127d0565b60405180910390f35b6102176004803603810190610212919061282b565b610749565b005b34801561022557600080fd5b50610240600480360381019061023b9190612890565b610cb6565b005b34801561024e57600080fd5b50610257610cdb565b60405161026491906127d0565b60405180910390f35b34801561027957600080fd5b50610294600480360381019061028f919061291b565b610ce1565b6040516102a191906127d0565b60405180910390f35b3480156102b657600080fd5b506102d160048036038101906102cc919061295b565b610d06565b6040516102de91906127d0565b60405180910390f35b3480156102f357600080fd5b506102fc610d1e565b60405161030991906127d0565b60405180910390f35b34801561031e57600080fd5b506103396004803603810190610334919061291b565b610d24565b005b34801561034757600080fd5b50610362600480360381019061035d919061295b565b6111b6565b60405161036f91906129a1565b60405180910390f35b34801561038457600080fd5b5061039f600480360381019061039a919061282b565b611249565b005b3480156103ad57600080fd5b506103c860048036038101906103c3919061282b565b6112e5565b6040516103d59190612bca565b60405180910390f35b3480156103ea57600080fd5b506104056004803603810190610400919061291b565b6114f7565b60405161041493929190612bfb565b60405180910390f35b34801561042957600080fd5b506104326115c8565b60405161043f91906127d0565b60405180910390f35b34801561045457600080fd5b5061045d6115ce565b60405161046a9190612c32565b60405180910390f35b34801561047f57600080fd5b5061049a6004803603810190610495919061282b565b6115e1565b005b3480156104a857600080fd5b506104b1611a27565b005b3480156104bf57600080fd5b506104da60048036038101906104d59190612da7565b611a3b565b005b3480156104e857600080fd5b506104f1611da2565b6040516104fe9190612e12565b60405180910390f35b34801561051357600080fd5b5061052e6004803603810190610529919061295b565b611dcb565b60405161053b91906127d0565b60405180910390f35b34801561055057600080fd5b5061056b6004803603810190610566919061282b565b611de3565b005b34801561057957600080fd5b50610594600480360381019061058f919061291b565b611e36565b6040516105a191906127d0565b60405180910390f35b3480156105b657600080fd5b506105bf611e5b565b6040516105cc91906127d0565b60405180910390f35b3480156105e157600080fd5b506105fc60048036038101906105f7919061282b565b611e61565b005b34801561060a57600080fd5b506106256004803603810190610620919061282b565b611eb4565b005b34801561063357600080fd5b5061064e6004803603810190610649919061295b565b611f07565b60405161065b91906127d0565b60405180910390f35b34801561067057600080fd5b5061068b6004803603810190610686919061282b565b611f1f565b6040516106a19a99989796959493929190612e86565b60405180910390f35b6106c460048036038101906106bf919061282b565b612042565b005b3480156106d257600080fd5b506106db6124b7565b6040516106e891906127d0565b60405180910390f35b3480156106fd57600080fd5b506107186004803603810190610713919061295b565b6124bd565b005b34801561072657600080fd5b50610741600480360381019061073c919061282b565b612543565b005b60095481565b600e60009054906101000a900460ff1615610799576040517f08c379a000000000000000000000000000000000000000000000000000000000815260040161079090612f75565b60405180910390fd5b42600a54600860003373ffffffffffffffffffffffffffffffffffffffff1673ffffffffffffffffffffffffffffffffffffffff168152602001908152602001600020546107e79190612fc4565b10610827576040517f08c379a000000000000000000000000000000000000000000000000000000000815260040161081e90613044565b60405180910390fd5b61082f612596565b6000600260008381526020019081526020016000209050600081600001540361088d576040517f08c379a0000000000000000000000000000000000000000000000000000000008152600401610884906130b0565b60405180910390fd5b3373ffffffffffffffffffffffffffffffffffffffff168160010160009054906101000a900473ffffffffffffffffffffffffffffffffffffffff1673ffffffffffffffffffffffffffffffffffffffff160361091f576040517f08c379a00000000000000000000000000000000000000000000000000000000081526004016109169061311c565b60405180910390fd5b8060040160009054906101000a900460ff16158061094b57508060070160009054906101000a900460ff165b61098a576040517f08c379a000000000000000000000000000000000000000000000000000000000815260040161098190613188565b60405180910390fd5b6009543410156109cf576040517f08c379a00000000000000000000000000000000000000000000000000000000081526004016109c6906131f4565b60405180910390fd5b60006006600084815260200190815260200160002060003373ffffffffffffffffffffffffffffffffffffffff1673ffffffffffffffffffffffffffffffffffffffff1681526020019081526020016000205414610a62576040517f08c379a0000000000000000000000000000000000000000000000000000000008152600401610a5990613260565b60405180910390fd5b346006600084815260200190815260200160002060003373ffffffffffffffffffffffffffffffffffffffff1673ffffffffffffffffffffffffffffffffffffffff1681526020019081526020016000208190555034816008016000828254610acb9190612fc4565b92505081905550806005016000815480929190610ae790613280565b9190505550600c54816005015410158015610b09575080600601548160050154115b15610bc25760018160040160006101000a81548160ff02191690831515021790555060008160070160006101000a81548160ff021916908315150217905550600460008260010160009054906101000a900473ffffffffffffffffffffffffffffffffffffffff1673ffffffffffffffffffffffffffffffffffffffff1673ffffffffffffffffffffffffffffffffffffffff1681526020019081526020016000206000815480929190610bbc90613280565b91905055505b600460003373ffffffffffffffffffffffffffffffffffffffff1673ffffffffffffffffffffffffffffffffffffffff1681526020019081526020016000206000815480929190610c1290613280565b91905055503373ffffffffffffffffffffffffffffffffffffffff16827f4381bd52879a1d3fd3412b89dfb2d9da68f17550ef5f1c401d38eb63a408ccda34604051610c5e91906127d0565b60405180910390a350610c6f6125dc565b42600860003373ffffffffffffffffffffffffffffffffffffffff1673ffffffffffffffffffffffffffffffffffffffff1681526020019081526020016000208190555050565b610cbe6125e5565b80600e60006101000a81548160ff02191690831515021790555050565b60035481565b6006602052816000526040600020602052806000526040600020600091509150505481565b60086020528060005260406000206000915090505481565b600c5481565b610d2c612596565b60006002600084815260200190815260200160002090506000816000015403610d8a576040517f08c379a0000000000000000000000000000000000000000000000000000000008152600401610d81906130b0565b60405180910390fd5b8060070160009054906101000a900460ff1615610ddc576040517f08c379a0000000000000000000000000000000000000000000000000000000008152600401610dd390613314565b60405180910390fd5b6000806006600086815260200190815260200160002060008573ffffffffffffffffffffffffffffffffffffffff1673ffffffffffffffffffffffffffffffffffffffff168152602001908152602001600020541190506000806007600087815260200190815260200160002060008673ffffffffffffffffffffffffffffffffffffffff1673ffffffffffffffffffffffffffffffffffffffff168152602001908152602001600020541190506000828015610ea757508360040160009054906101000a900460ff165b15610f5a576006600087815260200190815260200160002060008673ffffffffffffffffffffffffffffffffffffffff1673ffffffffffffffffffffffffffffffffffffffff16815260200190815260200160002054905060006006600088815260200190815260200160002060008773ffffffffffffffffffffffffffffffffffffffff1673ffffffffffffffffffffffffffffffffffffffff16815260200190815260200160002081905550611065565b818015610f7657508360040160009054906101000a900460ff16155b15611029576007600087815260200190815260200160002060008673ffffffffffffffffffffffffffffffffffffffff1673ffffffffffffffffffffffffffffffffffffffff16815260200190815260200160002054905060006007600088815260200190815260200160002060008773ffffffffffffffffffffffffffffffffffffffff1673ffffffffffffffffffffffffffffffffffffffff16815260200190815260200160002081905550611064565b6040517f08c379a000000000000000000000000000000000000000000000000000000000815260040161105b906133a6565b60405180910390fd5b5b600081116110a8576040517f08c379a000000000000000000000000000000000000000000000000000000000815260040161109f90613412565b60405180910390fd5b60008573ffffffffffffffffffffffffffffffffffffffff16826040516110ce90613463565b60006040518083038185875af1925050503d806000811461110b576040519150601f19603f3d011682016040523d82523d6000602084013e611110565b606091505b5050905080611154576040517f08c379a000000000000000000000000000000000000000000000000000000000815260040161114b906134c4565b60405180910390fd5b8573ffffffffffffffffffffffffffffffffffffffff16877fc434d7d4a650292d47521717697019c8f51fa0119131fe9c74ceeceee3d88d0c848760405161119d9291906134e4565b60405180910390a350505050506111b26125dc565b5050565b6000600560008373ffffffffffffffffffffffffffffffffffffffff1673ffffffffffffffffffffffffffffffffffffffff16815260200190815260200160002054600460008473ffffffffffffffffffffffffffffffffffffffff1673ffffffffffffffffffffffffffffffffffffffff16815260200190815260200160002054611242919061350d565b9050919050565b6112516125e5565b47811115611294576040517f08c379a000000000000000000000000000000000000000000000000000000000815260040161128b9061359c565b60405180910390fd5b61129c611da2565b73ffffffffffffffffffffffffffffffffffffffff166108fc829081150290604051600060405180830381858888f193505050501580156112e1573d6000803e3d6000fd5b5050565b6112ed612738565b6000600260008481526020019081526020016000206000015403611346576040517f08c379a000000000000000000000000000000000000000000000000000000000815260040161133d906130b0565b60405180910390fd5b6002600083815260200190815260200160002060405180610140016040529081600082015481526020016001820160009054906101000a900473ffffffffffffffffffffffffffffffffffffffff1673ffffffffffffffffffffffffffffffffffffffff1673ffffffffffffffffffffffffffffffffffffffff1681526020016002820180546113d5906135eb565b80601f0160208091040260200160405190810160405280929190818152602001828054611401906135eb565b801561144e5780601f106114235761010080835404028352916020019161144e565b820191906000526020600020905b81548152906001019060200180831161143157829003601f168201915b50505050508152602001600382015481526020016004820160009054906101000a900460ff161515151581526020016004820160019054906101000a900460ff1660058111156114a1576114a0612a79565b5b60058111156114b3576114b2612a79565b5b815260200160058201548152602001600682015481526020016007820160009054906101000a900460ff161515151581526020016008820154815250509050919050565b6000806000806006600087815260200190815260200160002060008673ffffffffffffffffffffffffffffffffffffffff1673ffffffffffffffffffffffffffffffffffffffff16815260200190815260200160002054905060006007600088815260200190815260200160002060008773ffffffffffffffffffffffffffffffffffffffff1673ffffffffffffffffffffffffffffffffffffffff168152602001908152602001600020549050600082116000821182846115b99190612fc4565b94509450945050509250925092565b600b5481565b600e60009054906101000a900460ff1681565b600e60009054906101000a900460ff1615611631576040517f08c379a000000000000000000000000000000000000000000000000000000000815260040161162890612f75565b60405180910390fd5b611639612596565b60006002600083815260200190815260200160002090506000816000015403611697576040517f08c379a000000000000000000000000000000000000000000000000000000000815260040161168e906130b0565b60405180910390fd5b8060070160009054906101000a900460ff166116e8576040517f08c379a00000000000000000000000000000000000000000000000000000000081526004016116df90613668565b60405180910390fd5b42600b5482600301546116fb9190612fc4565b1061173b576040517f08c379a0000000000000000000000000000000000000000000000000000000008152600401611732906136d4565b60405180910390fd5b600081600601548260050154119050808260040160006101000a81548160ff02191690831515021790555060008260070160006101000a81548160ff021916908315150217905550801561195157600460008360010160009054906101000a900473ffffffffffffffffffffffffffffffffffffffff1673ffffffffffffffffffffffffffffffffffffffff1673ffffffffffffffffffffffffffffffffffffffff16815260200190815260200160002060008154809291906117fd90613280565b91905055506000600560008460010160009054906101000a900473ffffffffffffffffffffffffffffffffffffffff1673ffffffffffffffffffffffffffffffffffffffff1673ffffffffffffffffffffffffffffffffffffffff16815260200190815260200160002054116118745760006118e5565b6001600560008460010160009054906101000a900473ffffffffffffffffffffffffffffffffffffffff1673ffffffffffffffffffffffffffffffffffffffff1673ffffffffffffffffffffffffffffffffffffffff168152602001908152602001600020546118e491906136f4565b5b600560008460010160009054906101000a900473ffffffffffffffffffffffffffffffffffffffff1673ffffffffffffffffffffffffffffffffffffffff1673ffffffffffffffffffffffffffffffffffffffff168152602001908152602001600020819055506119cb565b600560008360010160009054906101000a900473ffffffffffffffffffffffffffffffffffffffff1673ffffffffffffffffffffffffffffffffffffffff1673ffffffffffffffffffffffffffffffffffffffff16815260200190815260200160002060008154809291906119c590613280565b91905055505b827f920b6047817e3f352dc350525ca7d7792e481ee254dd1fed4b27551cb40b6a308360040160009054906101000a900460ff168460080154604051611a12929190613728565b60405180910390a25050611a246125dc565b50565b611a2f6125e5565b611a39600061266c565b565b600e60009054906101000a900460ff1615611a8b576040517f08c379a0000000000000000000000000000000000000000000000000000000008152600401611a8290612f75565b60405180910390fd5b42600a54600860003373ffffffffffffffffffffffffffffffffffffffff1673ffffffffffffffffffffffffffffffffffffffff16815260200190815260200160002054611ad99190612fc4565b10611b19576040517f08c379a0000000000000000000000000000000000000000000000000000000008152600401611b1090613044565b60405180910390fd5b6000825111611b5d576040517f08c379a0000000000000000000000000000000000000000000000000000000008152600401611b549061379d565b60405180910390fd5b60036000815480929190611b7090613280565b919050555060405180610140016040528060035481526020013373ffffffffffffffffffffffffffffffffffffffff168152602001838152602001428152602001600015158152602001826005811115611bcd57611bcc612a79565b5b8152602001600081526020016000815260200160001515815260200160008152506002600060035481526020019081526020016000206000820151816000015560208201518160010160006101000a81548173ffffffffffffffffffffffffffffffffffffffff021916908373ffffffffffffffffffffffffffffffffffffffff1602179055506040820151816002019081611c699190613969565b506060820151816003015560808201518160040160006101000a81548160ff02191690831515021790555060a08201518160040160016101000a81548160ff02191690836005811115611cbf57611cbe612a79565b5b021790555060c0820151816005015560e082015181600601556101008201518160070160006101000a81548160ff02191690831515021790555061012082015181600801559050503373ffffffffffffffffffffffffffffffffffffffff166003547f708075d618318ee06a9042556a51ac64652a037beb963e7693d02e109549a2828484604051611d52929190613a3b565b60405180910390a342600860003373ffffffffffffffffffffffffffffffffffffffff1673ffffffffffffffffffffffffffffffffffffffff168152602001908152602001600020819055505050565b60008060009054906101000a900473ffffffffffffffffffffffffffffffffffffffff16905090565b60046020528060005260406000206000915090505481565b611deb6125e5565b6000600a54905081600a819055507fc6fa6945e764a09274b1740466364e4bc6a7aaf3e8ca68f6f2d001edac3b90da8183604051611e2a929190613ab7565b60405180910390a15050565b6007602052816000526040600020602052806000526040600020600091509150505481565b600a5481565b611e696125e5565b6000600b54905081600b819055507fc6fa6945e764a09274b1740466364e4bc6a7aaf3e8ca68f6f2d001edac3b90da8183604051611ea8929190613b3f565b60405180910390a15050565b611ebc6125e5565b60006009549050816009819055507fc6fa6945e764a09274b1740466364e4bc6a7aaf3e8ca68f6f2d001edac3b90da8183604051611efb929190613bc7565b60405180910390a15050565b60056020528060005260406000206000915090505481565b60026020528060005260406000206000915090508060000154908060010160009054906101000a900473ffffffffffffffffffffffffffffffffffffffff1690806002018054611f6e906135eb565b80601f0160208091040260200160405190810160405280929190818152602001828054611f9a906135eb565b8015611fe75780601f10611fbc57610100808354040283529160200191611fe7565b820191906000526020600020905b815481529060010190602001808311611fca57829003601f168201915b5050505050908060030154908060040160009054906101000a900460ff16908060040160019054906101000a900460ff16908060050154908060060154908060070160009054906101000a900460ff1690806008015490508a565b600e60009054906101000a900460ff1615612092576040517f08c379a000000000000000000000000000000000000000000000000000000000815260040161208990612f75565b60405180910390fd5b42600a54600860003373ffffffffffffffffffffffffffffffffffffffff1673ffffffffffffffffffffffffffffffffffffffff168152602001908152602001600020546120e09190612fc4565b10612120576040517f08c379a000000000000000000000000000000000000000000000000000000000815260040161211790613044565b60405180910390fd5b612128612596565b60006002600083815260200190815260200160002090506000816000015403612186576040517f08c379a000000000000000000000000000000000000000000000000000000000815260040161217d906130b0565b60405180910390fd5b42600b5482600301546121999190612fc4565b116121d9576040517f08c379a00000000000000000000000000000000000000000000000000000000081526004016121d090613c4f565b60405180910390fd5b60095434101561221e576040517f08c379a000000000000000000000000000000000000000000000000000000000815260040161221590613cbb565b60405180910390fd5b60006007600084815260200190815260200160002060003373ffffffffffffffffffffffffffffffffffffffff1673ffffffffffffffffffffffffffffffffffffffff16815260200190815260200160002054146122b1576040517f08c379a00000000000000000000000000000000000000000000000000000000081526004016122a890613d27565b60405180910390fd5b3373ffffffffffffffffffffffffffffffffffffffff168160010160009054906101000a900473ffffffffffffffffffffffffffffffffffffffff1673ffffffffffffffffffffffffffffffffffffffff1603612343576040517f08c379a000000000000000000000000000000000000000000000000000000000815260040161233a90613d93565b60405180910390fd5b346007600084815260200190815260200160002060003373ffffffffffffffffffffffffffffffffffffffff1673ffffffffffffffffffffffffffffffffffffffff16815260200190815260200160002081905550348160080160008282546123ac9190612fc4565b925050819055508060060160008154809291906123c890613280565b919050555060018160070160006101000a81548160ff0219169083151502179055508060050154816006015411156124185760008160040160006101000a81548160ff0219169083151502179055505b3373ffffffffffffffffffffffffffffffffffffffff16827f414c10143f877e7e536def0da5f4a155531552e9afc49a945aa21a0e91bb6fb43460405161245f91906127d0565b60405180910390a3506124706125dc565b42600860003373ffffffffffffffffffffffffffffffffffffffff1673ffffffffffffffffffffffffffffffffffffffff1681526020019081526020016000208190555050565b600d5481565b6124c56125e5565b600073ffffffffffffffffffffffffffffffffffffffff168173ffffffffffffffffffffffffffffffffffffffff16036125375760006040517f1e4fbdf700000000000000000000000000000000000000000000000000000000815260040161252e9190612e12565b60405180910390fd5b6125408161266c565b50565b61254b6125e5565b6000600c54905081600c819055507fc6fa6945e764a09274b1740466364e4bc6a7aaf3e8ca68f6f2d001edac3b90da818360405161258a929190613dff565b60405180910390a15050565b6002600154036125d2576040517f3ee5aeb500000000000000000000000000000000000000000000000000000000815260040160405180910390fd5b6002600181905550565b60018081905550565b6125ed612730565b73ffffffffffffffffffffffffffffffffffffffff1661260b611da2565b73ffffffffffffffffffffffffffffffffffffffff161461266a5761262e612730565b6040517f118cdaa70000000000000000000000000000000000000000000000000000000081526004016126619190612e12565b60405180910390fd5b565b60008060009054906101000a900473ffffffffffffffffffffffffffffffffffffffff169050816000806101000a81548173ffffffffffffffffffffffffffffffffffffffff021916908373ffffffffffffffffffffffffffffffffffffffff1602179055508173ffffffffffffffffffffffffffffffffffffffff168173ffffffffffffffffffffffffffffffffffffffff167f8be0079c531659141344cd1fd0a4f28419497f9722a3daafe3b4186f6b6457e060405160405180910390a35050565b600033905090565b60405180610140016040528060008152602001600073ffffffffffffffffffffffffffffffffffffffff16815260200160608152602001600081526020016000151581526020016000600581111561279357612792612a79565b5b81526020016000815260200160008152602001600015158152602001600081525090565b6000819050919050565b6127ca816127b7565b82525050565b60006020820190506127e560008301846127c1565b92915050565b6000604051905090565b600080fd5b600080fd5b612808816127b7565b811461281357600080fd5b50565b600081359050612825816127ff565b92915050565b600060208284031215612841576128406127f5565b5b600061284f84828501612816565b91505092915050565b60008115159050919050565b61286d81612858565b811461287857600080fd5b50565b60008135905061288a81612864565b92915050565b6000602082840312156128a6576128a56127f5565b5b60006128b48482850161287b565b91505092915050565b600073ffffffffffffffffffffffffffffffffffffffff82169050919050565b60006128e8826128bd565b9050919050565b6128f8816128dd565b811461290357600080fd5b50565b600081359050612915816128ef565b92915050565b60008060408385031215612932576129316127f5565b5b600061294085828601612816565b925050602061295185828601612906565b9150509250929050565b600060208284031215612971576129706127f5565b5b600061297f84828501612906565b91505092915050565b6000819050919050565b61299b81612988565b82525050565b60006020820190506129b66000830184612992565b92915050565b6129c5816127b7565b82525050565b6129d4816128dd565b82525050565b600081519050919050565b600082825260208201905092915050565b60005b83811015612a145780820151818401526020810190506129f9565b60008484015250505050565b6000601f19601f8301169050919050565b6000612a3c826129da565b612a4681856129e5565b9350612a568185602086016129f6565b612a5f81612a20565b840191505092915050565b612a7381612858565b82525050565b7f4e487b7100000000000000000000000000000000000000000000000000000000600052602160045260246000fd5b60068110612ab957612ab8612a79565b5b50565b6000819050612aca82612aa8565b919050565b6000612ada82612abc565b9050919050565b612aea81612acf565b82525050565b600061014083016000830151612b0960008601826129bc565b506020830151612b1c60208601826129cb565b5060408301518482036040860152612b348282612a31565b9150506060830151612b4960608601826129bc565b506080830151612b5c6080860182612a6a565b5060a0830151612b6f60a0860182612ae1565b5060c0830151612b8260c08601826129bc565b5060e0830151612b9560e08601826129bc565b50610100830151612baa610100860182612a6a565b50610120830151612bbf6101208601826129bc565b508091505092915050565b60006020820190508181036000830152612be48184612af0565b905092915050565b612bf581612858565b82525050565b6000606082019050612c106000830186612bec565b612c1d6020830185612bec565b612c2a60408301846127c1565b949350505050565b6000602082019050612c476000830184612bec565b92915050565b600080fd5b600080fd5b7f4e487b7100000000000000000000000000000000000000000000000000000000600052604160045260246000fd5b612c8f82612a20565b810181811067ffffffffffffffff82111715612cae57612cad612c57565b5b80604052505050565b6000612cc16127eb565b9050612ccd8282612c86565b919050565b600067ffffffffffffffff821115612ced57612cec612c57565b5b612cf682612a20565b9050602081019050919050565b82818337600083830152505050565b6000612d25612d2084612cd2565b612cb7565b905082815260208101848484011115612d4157612d40612c52565b5b612d4c848285612d03565b509392505050565b600082601f830112612d6957612d68612c4d565b5b8135612d79848260208601612d12565b91505092915050565b60068110612d8f57600080fd5b50565b600081359050612da181612d82565b92915050565b60008060408385031215612dbe57612dbd6127f5565b5b600083013567ffffffffffffffff811115612ddc57612ddb6127fa565b5b612de885828601612d54565b9250506020612df985828601612d92565b9150509250929050565b612e0c816128dd565b82525050565b6000602082019050612e276000830184612e03565b92915050565b600082825260208201905092915050565b6000612e49826129da565b612e538185612e2d565b9350612e638185602086016129f6565b612e6c81612a20565b840191505092915050565b612e8081612acf565b82525050565b600061014082019050612e9c600083018d6127c1565b612ea9602083018c612e03565b8181036040830152612ebb818b612e3e565b9050612eca606083018a6127c1565b612ed76080830189612bec565b612ee460a0830188612e77565b612ef160c08301876127c1565b612efe60e08301866127c1565b612f0c610100830185612bec565b612f1a6101208301846127c1565b9b9a5050505050505050505050565b7f436f6e7472616374206973207061757365640000000000000000000000000000600082015250565b6000612f5f601283612e2d565b9150612f6a82612f29565b602082019050919050565b60006020820190508181036000830152612f8e81612f52565b9050919050565b7f4e487b7100000000000000000000000000000000000000000000000000000000600052601160045260246000fd5b6000612fcf826127b7565b9150612fda836127b7565b9250828201905080821115612ff257612ff1612f95565b5b92915050565b7f416374696f6e20636f6f6c646f776e20706572696f6420616374697665000000600082015250565b600061302e601d83612e2d565b915061303982612ff8565b602082019050919050565b6000602082019050818103600083015261305d81613021565b9050919050565b7f5265706f727420646f6573206e6f742065786973740000000000000000000000600082015250565b600061309a601583612e2d565b91506130a582613064565b602082019050919050565b600060208201905081810360008301526130c98161308d565b9050919050565b7f43616e6e6f7420766572696679206f776e207265706f72740000000000000000600082015250565b6000613106601883612e2d565b9150613111826130d0565b602082019050919050565b60006020820190508181036000830152613135816130f9565b9050919050565b7f5265706f727420616c7265616479207665726966696564000000000000000000600082015250565b6000613172601783612e2d565b915061317d8261313c565b602082019050919050565b600060208201905081810360008301526131a181613165565b9050919050565b7f496e73756666696369656e7420766572696669636174696f6e207374616b6500600082015250565b60006131de601f83612e2d565b91506131e9826131a8565b602082019050919050565b6000602082019050818103600083015261320d816131d1565b9050919050565b7f416c72656164792076657269666965642074686973207265706f727400000000600082015250565b600061324a601c83612e2d565b915061325582613214565b602082019050919050565b600060208201905081810360008301526132798161323d565b9050919050565b600061328b826127b7565b91507fffffffffffffffffffffffffffffffffffffffffffffffffffffffffffffffff82036132bd576132bc612f95565b5b600182019050919050565b7f5265706f7274207374696c6c20756e6465722064697370757465000000000000600082015250565b60006132fe601a83612e2d565b9150613309826132c8565b602082019050919050565b6000602082019050818103600083015261332d816132f1565b9050919050565b7f4e6f207374616b657320746f2072656c65617365206f72207374616b6572206e60008201527f6f74206f6e2077696e6e696e6720736964650000000000000000000000000000602082015250565b6000613390603283612e2d565b915061339b82613334565b604082019050919050565b600060208201905081810360008301526133bf81613383565b9050919050565b7f4e6f2066756e647320746f2072656c6561736500000000000000000000000000600082015250565b60006133fc601383612e2d565b9150613407826133c6565b602082019050919050565b6000602082019050818103600083015261342b816133ef565b9050919050565b600081905092915050565b50565b600061344d600083613432565b91506134588261343d565b600082019050919050565b600061346e82613440565b9150819050919050565b7f5472616e73666572206661696c65640000000000000000000000000000000000600082015250565b60006134ae600f83612e2d565b91506134b982613478565b602082019050919050565b600060208201905081810360008301526134dd816134a1565b9050919050565b60006040820190506134f960008301856127c1565b6135066020830184612bec565b9392505050565b600061351882612988565b915061352383612988565b925082820390508181126000841216828213600085121516171561354a57613549612f95565b5b92915050565b7f4e6f7420656e6f7567682045544820696e20636f6e7472616374000000000000600082015250565b6000613586601a83612e2d565b915061359182613550565b602082019050919050565b600060208201905081810360008301526135b581613579565b9050919050565b7f4e487b7100000000000000000000000000000000000000000000000000000000600052602260045260246000fd5b6000600282049050600182168061360357607f821691505b602082108103613616576136156135bc565b5b50919050565b7f5265706f7274206e6f7420756e64657220646973707574650000000000000000600082015250565b6000613652601883612e2d565b915061365d8261361c565b602082019050919050565b6000602082019050818103600083015261368181613645565b9050919050565b7f4469737075746520706572696f64206e6f7420656e6465640000000000000000600082015250565b60006136be601883612e2d565b91506136c982613688565b602082019050919050565b600060208201905081810360008301526136ed816136b1565b9050919050565b60006136ff826127b7565b915061370a836127b7565b925082820390508181111561372257613721612f95565b5b92915050565b600060408201905061373d6000830185612bec565b61374a60208301846127c1565b9392505050565b7f4950465320686173682072657175697265640000000000000000000000000000600082015250565b6000613787601283612e2d565b915061379282613751565b602082019050919050565b600060208201905081810360008301526137b68161377a565b9050919050565b60008190508160005260206000209050919050565b60006020601f8301049050919050565b600082821b905092915050565b60006008830261381f7fffffffffffffffffffffffffffffffffffffffffffffffffffffffffffffffff826137e2565b61382986836137e2565b95508019841693508086168417925050509392505050565b6000819050919050565b600061386661386161385c846127b7565b613841565b6127b7565b9050919050565b6000819050919050565b6138808361384b565b61389461388c8261386d565b8484546137ef565b825550505050565b600090565b6138a961389c565b6138b4818484613877565b505050565b5b818110156138d8576138cd6000826138a1565b6001810190506138ba565b5050565b601f82111561391d576138ee816137bd565b6138f7846137d2565b81016020851015613906578190505b61391a613912856137d2565b8301826138b9565b50505b505050565b600082821c905092915050565b600061394060001984600802613922565b1980831691505092915050565b6000613959838361392f565b9150826002028217905092915050565b613972826129da565b67ffffffffffffffff81111561398b5761398a612c57565b5b61399582546135eb565b6139a08282856138dc565b600060209050601f8311600181146139d357600084156139c1578287015190505b6139cb858261394d565b865550613a33565b601f1984166139e1866137bd565b60005b82811015613a09578489015182556001820191506020850194506020810190506139e4565b86831015613a265784890151613a22601f89168261392f565b8355505b6001600288020188555050505b505050505050565b60006040820190508181036000830152613a558185612e3e565b9050613a646020830184612e77565b9392505050565b7f72657075746174696f6e436f6f6c646f776e0000000000000000000000000000600082015250565b6000613aa1601283612e2d565b9150613aac82613a6b565b602082019050919050565b60006060820190508181036000830152613ad081613a94565b9050613adf60208301856127c1565b613aec60408301846127c1565b9392505050565b7f64697370757465506572696f6400000000000000000000000000000000000000600082015250565b6000613b29600d83612e2d565b9150613b3482613af3565b602082019050919050565b60006060820190508181036000830152613b5881613b1c565b9050613b6760208301856127c1565b613b7460408301846127c1565b9392505050565b7f766572696669636174696f6e5374616b65000000000000000000000000000000600082015250565b6000613bb1601183612e2d565b9150613bbc82613b7b565b602082019050919050565b60006060820190508181036000830152613be081613ba4565b9050613bef60208301856127c1565b613bfc60408301846127c1565b9392505050565b7f4469737075746520706572696f6420656e646564000000000000000000000000600082015250565b6000613c39601483612e2d565b9150613c4482613c03565b602082019050919050565b60006020820190508181036000830152613c6881613c2c565b9050919050565b7f496e73756666696369656e742064697370757465207374616b65000000000000600082015250565b6000613ca5601a83612e2d565b9150613cb082613c6f565b602082019050919050565b60006020820190508181036000830152613cd481613c98565b9050919050565b7f416c72656164792064697370757465642074686973207265706f727400000000600082015250565b6000613d11601c83612e2d565b9150613d1c82613cdb565b602082019050919050565b60006020820190508181036000830152613d4081613d04565b9050919050565b7f43616e6e6f742064697370757465206f776e207265706f727400000000000000600082015250565b6000613d7d601983612e2d565b9150613d8882613d47565b602082019050919050565b60006020820190508181036000830152613dac81613d70565b9050919050565b7f7265736f6c7574696f6e5468726573686f6c6400000000000000000000000000600082015250565b6000613de9601383612e2d565b9150613df482613db3565b602082019050919050565b60006060820190508181036000830152613e1881613ddc565b9050613e2760208301856127c1565b613e3460408301846127c1565b939250505056fea264697066735822122095d7809f7874268b13c4309b4e7b34e6234ccaa29eb1f98232e2140dd61272cd64736f6c634300081c0033",
  "linkReferences": {},
  "deployedLinkReferences": {}
}