{
  "_format": "hh-sol-artifact-1",
  "contractName": "DeScam",
  "sourceName": "contracts/DeScam.sol",
  "abi": [
    {
      "inputs": [],
      "stateMutability": "nonpayable",
      "type": "constructor"
    },
    {
      "anonymous": false,
      "inputs": [
        {
          "indexed": false,
          "internalType": "string",
          "name": "parameterName",
          "type": "string"
        },
        {
          "indexed": false,
          "internalType": "uint256",
          "name": "oldValue",
          "type": "uint256"
        },
        {
          "indexed": false,
          "internalType": "uint256",
          "name": "newValue",
          "type": "uint256"
        }
      ],
      "name": "GovernanceParameterChanged",
      "type": "event"
    },
    {
      "anonymous": false,
      "inputs": [
        {
          "indexed": true,
          "internalType": "address",
          "name": "previousOwner",
          "type": "address"
        },
        {
          "indexed": true,
          "internalType": "address",
          "name": "newOwner",
          "type": "address"
        }
      ],
      "name": "OwnershipTransferred",
      "type": "event"
    },
    {
      "anonymous": false,
      "inputs": [
        {
          "indexed": true,
          "internalType": "uint256",
          "name": "id",
          "type": "uint256"
        },
        {
          "indexed": false,
          "internalType": "string",
          "name": "newIpfsHash",
          "type": "string"
        },
        {
          "indexed": false,
          "internalType": "enum DeScam.ScamType",
          "name": "scamType",
          "type": "uint8"
        }
      ],
      "name": "ReportDetailsUpdated",
      "type": "event"
    },
    {
      "anonymous": false,
      "inputs": [
        {
          "indexed": true,
          "internalType": "uint256",
          "name": "id",
          "type": "uint256"
        },
        {
          "indexed": true,
          "internalType": "address",
          "name": "disputer",
          "type": "address"
        },
        {
          "indexed": false,
          "internalType": "uint256",
          "name": "stake",
          "type": "uint256"
        }
      ],
      "name": "ReportDisputed",
      "type": "event"
    },
    {
      "anonymous": false,
      "inputs": [
        {
          "indexed": true,
          "internalType": "uint256",
          "name": "id",
          "type": "uint256"
        },
        {
          "indexed": false,
          "internalType": "bool",
          "name": "verified",
          "type": "bool"
        }
      ],
      "name": "ReportResolved",
      "type": "event"
    },
    {
      "anonymous": false,
      "inputs": [
        {
          "indexed": true,
          "internalType": "uint256",
          "name": "id",
          "type": "uint256"
        },
        {
          "indexed": true,
          "internalType": "address",
          "name": "reporter",
          "type": "address"
        },
        {
          "indexed": false,
          "internalType": "string",
          "name": "ipfsHash",
          "type": "string"
        }
      ],
      "name": "ReportSubmitted",
      "type": "event"
    },
    {
      "anonymous": false,
      "inputs": [
        {
          "indexed": true,
          "internalType": "uint256",
          "name": "id",
          "type": "uint256"
        },
        {
          "indexed": true,
          "internalType": "address",
          "name": "verifier",
          "type": "address"
        },
        {
          "indexed": false,
          "internalType": "uint256",
          "name": "stake",
          "type": "uint256"
        }
      ],
      "name": "ReportVerified",
      "type": "event"
    },
    {
      "anonymous": false,
      "inputs": [
        {
          "indexed": true,
          "internalType": "uint256",
          "name": "reportId",
          "type": "uint256"
        },
        {
          "indexed": true,
          "internalType": "address",
          "name": "staker",
          "type": "address"
        },
        {
          "indexed": false,
          "internalType": "uint256",
          "name": "amount",
          "type": "uint256"
        },
        {
          "indexed": false,
          "internalType": "bool",
          "name": "wasVerifier",
          "type": "bool"
        }
      ],
      "name": "StakeReleased",
      "type": "event"
    },
    {
      "inputs": [],
      "name": "disputePeriod",
      "outputs": [
        {
          "internalType": "uint256",
          "name": "",
          "type": "uint256"
        }
      ],
      "stateMutability": "view",
      "type": "function"
    },
    {
      "inputs": [
        {
          "internalType": "address",
          "name": "",
          "type": "address"
        }
      ],
      "name": "lastActionTime",
      "outputs": [
        {
          "internalType": "uint256",
          "name": "",
          "type": "uint256"
        }
      ],
      "stateMutability": "view",
      "type": "function"
    },
    {
      "inputs": [
        {
          "internalType": "address",
          "name": "",
          "type": "address"
        }
      ],
      "name": "negativeReputation",
      "outputs": [
        {
          "internalType": "uint256",
          "name": "",
          "type": "uint256"
        }
      ],
      "stateMutability": "view",
      "type": "function"
    },
    {
      "inputs": [],
      "name": "owner",
      "outputs": [
        {
          "internalType": "address",
          "name": "",
          "type": "address"
        }
      ],
      "stateMutability": "view",
      "type": "function"
    },
    {
      "inputs": [],
      "name": "paused",
      "outputs": [
        {
          "internalType": "bool",
          "name": "",
          "type": "bool"
        }
      ],
      "stateMutability": "view",
      "type": "function"
    },
    {
      "inputs": [
        {
          "internalType": "address",
          "name": "",
          "type": "address"
        }
      ],
      "name": "positiveReputation",
      "outputs": [
        {
          "internalType": "uint256",
          "name": "",
          "type": "uint256"
        }
      ],
      "stateMutability": "view",
      "type": "function"
    },
    {
      "inputs": [],
      "name": "renounceOwnership",
      "outputs": [],
      "stateMutability": "nonpayable",
      "type": "function"
    },
    {
      "inputs": [],
      "name": "reportCount",
      "outputs": [
        {
          "internalType": "uint256",
          "name": "",
          "type": "uint256"
        }
      ],
      "stateMutability": "view",
      "type": "function"
    },
    {
      "inputs": [
        {
          "internalType": "uint256",
          "name": "",
          "type": "uint256"
        },
        {
          "internalType": "address",
          "name": "",
          "type": "address"
        }
      ],
      "name": "reportDisputeStakes",
      "outputs": [
        {
          "internalType": "uint256",
          "name": "",
          "type": "uint256"
        }
      ],
      "stateMutability": "view",
      "type": "function"
    },
    {
      "inputs": [
        {
          "internalType": "uint256",
          "name": "",
          "type": "uint256"
        },
        {
          "internalType": "address",
          "name": "",
          "type": "address"
        }
      ],
      "name": "reportVerificationStakes",
      "outputs": [
        {
          "internalType": "uint256",
          "name": "",
          "type": "uint256"
        }
      ],
      "stateMutability": "view",
      "type": "function"
    },
    {
      "inputs": [
        {
          "internalType": "uint256",
          "name": "",
          "type": "uint256"
        }
      ],
      "name": "reports",
      "outputs": [
        {
          "internalType": "uint256",
          "name": "id",
          "type": "uint256"
        },
        {
          "internalType": "address",
          "name": "reporter",
          "type": "address"
        },
        {
          "internalType": "string",
          "name": "ipfsHash",
          "type": "string"
        },
        {
          "internalType": "uint256",
          "name": "timestamp",
          "type": "uint256"
        },
        {
          "internalType": "bool",
          "name": "verified",
          "type": "bool"
        },
        {
          "internalType": "uint8",
          "name": "verificationCount",
          "type": "uint8"
        },
        {
          "internalType": "uint8",
          "name": "disputeCount",
          "type": "uint8"
        },
        {
          "internalType": "bool",
          "name": "disputed",
          "type": "bool"
        }
      ],
      "stateMutability": "view",
      "type": "function"
    },
    {
      "inputs": [],
      "name": "reputationCooldown",
      "outputs": [
        {
          "internalType": "uint256",
          "name": "",
          "type": "uint256"
        }
      ],
      "stateMutability": "view",
      "type": "function"
    },
    {
      "inputs": [],
      "name": "resolutionThreshold",
      "outputs": [
        {
          "internalType": "uint256",
          "name": "",
          "type": "uint256"
        }
      ],
      "stateMutability": "view",
      "type": "function"
    },
    {
      "inputs": [
        {
          "internalType": "string",
          "name": "_ipfsHash",
          "type": "string"
        },
        {
          "internalType": "enum DeScam.ScamType",
          "name": "_scamType",
          "type": "uint8"
        }
      ],
      "name": "submitReport",
      "outputs": [],
      "stateMutability": "nonpayable",
      "type": "function"
    },
    {
      "inputs": [
        {
          "internalType": "address",
          "name": "newOwner",
          "type": "address"
        }
      ],
      "name": "transferOwnership",
      "outputs": [],
      "stateMutability": "nonpayable",
      "type": "function"
    },
    {
      "inputs": [
        {
          "internalType": "uint256",
          "name": "_reportId",
          "type": "uint256"
        },
        {
          "internalType": "string",
          "name": "_newIpfsHash",
          "type": "string"
        },
        {
          "internalType": "enum DeScam.ScamType",
          "name": "_scamType",
          "type": "uint8"
        }
      ],
      "name": "updateReportContent",
      "outputs": [],
      "stateMutability": "nonpayable",
      "type": "function"
    },
    {
      "inputs": [],
      "name": "verificationStake",
      "outputs": [
        {
          "internalType": "uint256",
          "name": "",
          "type": "uint256"
        }
      ],
      "stateMutability": "view",
      "type": "function"
    }
  ],
  "bytecode": "0x6080604052662386f26fc1000060095562015180600a5562093a80600b556005600c556000600d60006101000a81548160ff02191690831515021790555034801561004957600080fd5b5061006661005b61007a60201b60201c565b61008260201b60201c565b600180819055506000600881905550610146565b600033905090565b60008060009054906101000a900473ffffffffffffffffffffffffffffffffffffffff169050816000806101000a81548173ffffffffffffffffffffffffffffffffffffffff021916908373ffffffffffffffffffffffffffffffffffffffff1602179055508173ffffffffffffffffffffffffffffffffffffffff168173ffffffffffffffffffffffffffffffffffffffff167f8be0079c531659141344cd1fd0a4f28419497f9722a3daafe3b4186f6b6457e060405160405180910390a35050565b611a27806101556000396000f3fe608060405234801561001057600080fd5b506004361061010b5760003560e01c806384c861b5116100a2578063a60da92911610071578063a60da929146102aa578063b78a606b146102c8578063c603ed72146102e4578063c942adf714610314578063f2fde38b1461034b5761010b565b806384c861b5146102105780638da5cb5b1461022c57806391f294711461024a578063a00d6f031461027a5761010b565b80632f44ee7c116100de5780632f44ee7c146101ac5780635bf31d4d146101ca5780635c975abb146101e8578063715018a6146102065761010b565b806304ef55bd14610110578063185c6f841461012e578063277b4d8a1461014c57806327f0bfd61461017c575b600080fd5b610118610367565b6040516101259190610cea565b60405180910390f35b61013661036d565b6040516101439190610cea565b60405180910390f35b61016660048036038101906101619190610da3565b610373565b6040516101739190610cea565b60405180910390f35b61019660048036038101906101919190610de3565b610398565b6040516101a39190610cea565b60405180910390f35b6101b46103b0565b6040516101c19190610cea565b60405180910390f35b6101d26103b6565b6040516101df9190610cea565b60405180910390f35b6101f06103bc565b6040516101fd9190610e2b565b60405180910390f35b61020e6103cf565b005b61022a60048036038101906102259190610fb1565b6103e3565b005b61023461075d565b604051610241919061101c565b60405180910390f35b610264600480360381019061025f9190610de3565b610786565b6040516102719190610cea565b60405180910390f35b610294600480360381019061028f9190610da3565b61079e565b6040516102a19190610cea565b60405180910390f35b6102b26107c3565b6040516102bf9190610cea565b60405180910390f35b6102e260048036038101906102dd9190611037565b6107c9565b005b6102fe60048036038101906102f99190610de3565b6109c8565b60405161030b9190610cea565b60405180910390f35b61032e600480360381019061032991906110a6565b6109e0565b60405161034298979695949392919061116e565b60405180910390f35b61036560048036038101906103609190610de3565b610b04565b005b60095481565b60085481565b6005602052816000526040600020602052806000526040600020600091509150505481565b60076020528060005260406000206000915090505481565b600c5481565b600b5481565b600d60009054906101000a900460ff1681565b6103d7610b87565b6103e16000610c05565b565b600d60009054906101000a900460ff1615610433576040517f08c379a000000000000000000000000000000000000000000000000000000000815260040161042a9061123f565b60405180910390fd5b42600a54600760003373ffffffffffffffffffffffffffffffffffffffff1673ffffffffffffffffffffffffffffffffffffffff16815260200190815260200160002054610481919061128e565b106104c1576040517f08c379a00000000000000000000000000000000000000000000000000000000081526004016104b89061130e565b60405180910390fd5b6000825111610505576040517f08c379a00000000000000000000000000000000000000000000000000000000081526004016104fc9061137a565b60405180910390fd5b600860008154809291906105189061139a565b919050555060405180610100016040528060085481526020013373ffffffffffffffffffffffffffffffffffffffff168152602001838152602001428152602001600015158152602001600060ff168152602001600060ff168152602001600015158152506002600060085481526020019081526020016000206000820151816000015560208201518160010160006101000a81548173ffffffffffffffffffffffffffffffffffffffff021916908373ffffffffffffffffffffffffffffffffffffffff16021790555060408201518160020190816105f891906115ee565b506060820151816003015560808201518160040160006101000a81548160ff02191690831515021790555060a08201518160040160016101000a81548160ff021916908360ff16021790555060c08201518160040160026101000a81548160ff021916908360ff16021790555060e08201518160040160036101000a81548160ff0219169083151502179055509050503373ffffffffffffffffffffffffffffffffffffffff166008547f01214c9a229f148da8dd64c1f59a99aea3a21e8ecae2e65b5399ac1eaa27fe4d846040516106d191906116c0565b60405180910390a36008547facdc620d65811738e1b87288ca62ba5884c7596e4cba047a9e8bea5cb82536cc838360405161070d929190611759565b60405180910390a242600760003373ffffffffffffffffffffffffffffffffffffffff1673ffffffffffffffffffffffffffffffffffffffff168152602001908152602001600020819055505050565b60008060009054906101000a900473ffffffffffffffffffffffffffffffffffffffff16905090565b60036020528060005260406000206000915090505481565b6006602052816000526040600020602052806000526040600020600091509150505481565b600a5481565b600d60009054906101000a900460ff1615610819576040517f08c379a00000000000000000000000000000000000000000000000000000000081526004016108109061123f565b60405180910390fd5b60006002600085815260200190815260200160002090506000816000015403610877576040517f08c379a000000000000000000000000000000000000000000000000000000000815260040161086e906117d5565b60405180910390fd5b3373ffffffffffffffffffffffffffffffffffffffff168160010160009054906101000a900473ffffffffffffffffffffffffffffffffffffffff1673ffffffffffffffffffffffffffffffffffffffff1614610909576040517f08c379a000000000000000000000000000000000000000000000000000000000815260040161090090611841565b60405180910390fd5b8060040160009054906101000a900460ff1615801561093757508060040160039054906101000a900460ff16155b610976576040517f08c379a000000000000000000000000000000000000000000000000000000000815260040161096d906118d3565b60405180910390fd5b8281600201908161098791906115ee565b50837facdc620d65811738e1b87288ca62ba5884c7596e4cba047a9e8bea5cb82536cc84846040516109ba929190611759565b60405180910390a250505050565b60046020528060005260406000206000915090505481565b60026020528060005260406000206000915090508060000154908060010160009054906101000a900473ffffffffffffffffffffffffffffffffffffffff1690806002018054610a2f90611411565b80601f0160208091040260200160405190810160405280929190818152602001828054610a5b90611411565b8015610aa85780601f10610a7d57610100808354040283529160200191610aa8565b820191906000526020600020905b815481529060010190602001808311610a8b57829003601f168201915b5050505050908060030154908060040160009054906101000a900460ff16908060040160019054906101000a900460ff16908060040160029054906101000a900460ff16908060040160039054906101000a900460ff16905088565b610b0c610b87565b600073ffffffffffffffffffffffffffffffffffffffff168173ffffffffffffffffffffffffffffffffffffffff1603610b7b576040517f08c379a0000000000000000000000000000000000000000000000000000000008152600401610b7290611965565b60405180910390fd5b610b8481610c05565b50565b610b8f610cc9565b73ffffffffffffffffffffffffffffffffffffffff16610bad61075d565b73ffffffffffffffffffffffffffffffffffffffff1614610c03576040517f08c379a0000000000000000000000000000000000000000000000000000000008152600401610bfa906119d1565b60405180910390fd5b565b60008060009054906101000a900473ffffffffffffffffffffffffffffffffffffffff169050816000806101000a81548173ffffffffffffffffffffffffffffffffffffffff021916908373ffffffffffffffffffffffffffffffffffffffff1602179055508173ffffffffffffffffffffffffffffffffffffffff168173ffffffffffffffffffffffffffffffffffffffff167f8be0079c531659141344cd1fd0a4f28419497f9722a3daafe3b4186f6b6457e060405160405180910390a35050565b600033905090565b6000819050919050565b610ce481610cd1565b82525050565b6000602082019050610cff6000830184610cdb565b92915050565b6000604051905090565b600080fd5b600080fd5b610d2281610cd1565b8114610d2d57600080fd5b50565b600081359050610d3f81610d19565b92915050565b600073ffffffffffffffffffffffffffffffffffffffff82169050919050565b6000610d7082610d45565b9050919050565b610d8081610d65565b8114610d8b57600080fd5b50565b600081359050610d9d81610d77565b92915050565b60008060408385031215610dba57610db9610d0f565b5b6000610dc885828601610d30565b9250506020610dd985828601610d8e565b9150509250929050565b600060208284031215610df957610df8610d0f565b5b6000610e0784828501610d8e565b91505092915050565b60008115159050919050565b610e2581610e10565b82525050565b6000602082019050610e406000830184610e1c565b92915050565b600080fd5b600080fd5b6000601f19601f8301169050919050565b7f4e487b7100000000000000000000000000000000000000000000000000000000600052604160045260246000fd5b610e9982610e50565b810181811067ffffffffffffffff82111715610eb857610eb7610e61565b5b80604052505050565b6000610ecb610d05565b9050610ed78282610e90565b919050565b600067ffffffffffffffff821115610ef757610ef6610e61565b5b610f0082610e50565b9050602081019050919050565b82818337600083830152505050565b6000610f2f610f2a84610edc565b610ec1565b905082815260208101848484011115610f4b57610f4a610e4b565b5b610f56848285610f0d565b509392505050565b600082601f830112610f7357610f72610e46565b5b8135610f83848260208601610f1c565b91505092915050565b60068110610f9957600080fd5b50565b600081359050610fab81610f8c565b92915050565b60008060408385031215610fc857610fc7610d0f565b5b600083013567ffffffffffffffff811115610fe657610fe5610d14565b5b610ff285828601610f5e565b925050602061100385828601610f9c565b9150509250929050565b61101681610d65565b82525050565b6000602082019050611031600083018461100d565b92915050565b6000806000606084860312156110505761104f610d0f565b5b600061105e86828701610d30565b935050602084013567ffffffffffffffff81111561107f5761107e610d14565b5b61108b86828701610f5e565b925050604061109c86828701610f9c565b9150509250925092565b6000602082840312156110bc576110bb610d0f565b5b60006110ca84828501610d30565b91505092915050565b600081519050919050565b600082825260208201905092915050565b60005b8381101561110d5780820151818401526020810190506110f2565b60008484015250505050565b6000611124826110d3565b61112e81856110de565b935061113e8185602086016110ef565b61114781610e50565b840191505092915050565b600060ff82169050919050565b61116881611152565b82525050565b600061010082019050611184600083018b610cdb565b611191602083018a61100d565b81810360408301526111a38189611119565b90506111b26060830188610cdb565b6111bf6080830187610e1c565b6111cc60a083018661115f565b6111d960c083018561115f565b6111e660e0830184610e1c565b9998505050505050505050565b7f436f6e7472616374206973207061757365640000000000000000000000000000600082015250565b60006112296012836110de565b9150611234826111f3565b602082019050919050565b600060208201905081810360008301526112588161121c565b9050919050565b7f4e487b7100000000000000000000000000000000000000000000000000000000600052601160045260246000fd5b600061129982610cd1565b91506112a483610cd1565b92508282019050808211156112bc576112bb61125f565b5b92915050565b7f416374696f6e20636f6f6c646f776e2061637469766500000000000000000000600082015250565b60006112f86016836110de565b9150611303826112c2565b602082019050919050565b60006020820190508181036000830152611327816112eb565b9050919050565b7f4950465320686173682072657175697265640000000000000000000000000000600082015250565b60006113646012836110de565b915061136f8261132e565b602082019050919050565b6000602082019050818103600083015261139381611357565b9050919050565b60006113a582610cd1565b91507fffffffffffffffffffffffffffffffffffffffffffffffffffffffffffffffff82036113d7576113d661125f565b5b600182019050919050565b7f4e487b7100000000000000000000000000000000000000000000000000000000600052602260045260246000fd5b6000600282049050600182168061142957607f821691505b60208210810361143c5761143b6113e2565b5b50919050565b60008190508160005260206000209050919050565b60006020601f8301049050919050565b600082821b905092915050565b6000600883026114a47fffffffffffffffffffffffffffffffffffffffffffffffffffffffffffffffff82611467565b6114ae8683611467565b95508019841693508086168417925050509392505050565b6000819050919050565b60006114eb6114e66114e184610cd1565b6114c6565b610cd1565b9050919050565b6000819050919050565b611505836114d0565b611519611511826114f2565b848454611474565b825550505050565b600090565b61152e611521565b6115398184846114fc565b505050565b5b8181101561155d57611552600082611526565b60018101905061153f565b5050565b601f8211156115a25761157381611442565b61157c84611457565b8101602085101561158b578190505b61159f61159785611457565b83018261153e565b50505b505050565b600082821c905092915050565b60006115c5600019846008026115a7565b1980831691505092915050565b60006115de83836115b4565b9150826002028217905092915050565b6115f7826110d3565b67ffffffffffffffff8111156116105761160f610e61565b5b61161a8254611411565b611625828285611561565b600060209050601f8311600181146116585760008415611646578287015190505b61165085826115d2565b8655506116b8565b601f19841661166686611442565b60005b8281101561168e57848901518255600182019150602085019450602081019050611669565b868310156116ab57848901516116a7601f8916826115b4565b8355505b6001600288020188555050505b505050505050565b600060208201905081810360008301526116da8184611119565b905092915050565b7f4e487b7100000000000000000000000000000000000000000000000000000000600052602160045260246000fd5b60068110611722576117216116e2565b5b50565b600081905061173382611711565b919050565b600061174382611725565b9050919050565b61175381611738565b82525050565b600060408201905081810360008301526117738185611119565b9050611782602083018461174a565b9392505050565b7f5265706f727420646f6573206e6f742065786973740000000000000000000000600082015250565b60006117bf6015836110de565b91506117ca82611789565b602082019050919050565b600060208201905081810360008301526117ee816117b2565b9050919050565b7f4f6e6c79207265706f727465722063616e2075706461746520636f6e74656e74600082015250565b600061182b6020836110de565b9150611836826117f5565b602082019050919050565b6000602082019050818103600083015261185a8161181e565b9050919050565b7f43616e6e6f7420757064617465207665726966696564206f722064697370757460008201527f6564207265706f72740000000000000000000000000000000000000000000000602082015250565b60006118bd6029836110de565b91506118c882611861565b604082019050919050565b600060208201905081810360008301526118ec816118b0565b9050919050565b7f4f776e61626c653a206e6577206f776e657220697320746865207a65726f206160008201527f6464726573730000000000000000000000000000000000000000000000000000602082015250565b600061194f6026836110de565b915061195a826118f3565b604082019050919050565b6000602082019050818103600083015261197e81611942565b9050919050565b7f4f776e61626c653a2063616c6c6572206973206e6f7420746865206f776e6572600082015250565b60006119bb6020836110de565b91506119c682611985565b602082019050919050565b600060208201905081810360008301526119ea816119ae565b905091905056fea2646970667358221220428e560a25ef690cdcdb44274baa9dbe254ce11e04136cc6bf71af98476d38c664736f6c634300081c0033",
  "linkReferences": {},
  "deployedLinkReferences": {}
}